:020000040800F2
:100000000000022021170008711600087D16000864
:1000100083160008891600088F16000800000000EB
:10002000000000000000000000000000951600081D
:10003000A116000800000000AD160008B91600085F
:100040007117000871170008711700087117000870
:100050007117000871170008711700087117000860
:100060007117000871170008711700087117000850
:100070007117000871170008711700087117000840
:1000800071170008711700087117000800000000C0
:1000900000000000000000000000000071170008D0
:1000A0007117000871170008711700087117000810
:1000B0007117000871170008711700087117000800
:1000C00071170008711700087117000871170008F0
:1000D0007117000871170008711700080000000070
:1000E0007117000871170008711700080000000060
:1000F0000000000000000000000000007117000870
:10010000000000007117000871170008711700083F
:1001100000000000000000000000000000000000DF
:10012000711700087117000871170008711700088F
:10013000711700080000000000000000000000002F
:10014000000000000000000000000000711700081F
:10015000711700087117000871170008711700085F
:10016000711700087117000800000000000000006F
:10017000000000000000000000000000000000007F
:1001800000000000711700080000000000000000DF
:08019000711700087117000847
:10019800044B05481B1A062B02D9044B03B1184718
:1001A800704700BF0F0000200C0000200000000076
:1001B80005490648091A891001EBD171491002D086
:1001C800034B03B1184770470C0000200C000020B7
:1001D8000000000010B5064C237843B9FFF7D8FF9C
:1001E800044B13B10448AFF300800123237010BD02
:1001F8000C000020000000007417000808B5084B28
:100208001BB108490848AFF300800848036813B9D0
:10021800BDE80840CCE7064B002BF9D09847F7E734
:100228000000000010000020741700080C000020D7
:100238000000000053B94AB9002908BF00281CBFB4
:100248004FF0FF314FF0FF3000F07AB9ADF1080CF4
:100258006DE904CE00F006F8DDF804E0DDE90223DC
:1002680004B070472DE9F0478C460D460446089EB9
:10027800002B51D18A4217466DD9B2FA82FEBEF1DF
:10028800000F0BD0CEF1200C01FA0EF520FA0CFC71
:1002980002FA0EF74CEA050C00FA0EF44FEA174A78
:1002A800250CBCFBFAF81FFA87F90AFB18CC45EABB
:1002B8000C4508FB09F3AB420AD9ED1908F1FF32E6
:1002C80080F02381AB4240F22081A8F102083D442E
:1002D800ED1AA4B2B5FBFAF00AFB105544EA05443E
:1002E80000FB09F9A14509D9E41900F1FF3380F0B1
:1002F8000A81A14540F2078102383C44A4EB090475
:1003080040EA08400021002E61D024FA0EF40023B0
:1003180034607360BDE8F0878B4207D9002E54D053
:10032800002186E821000846BDE8F087B3FA83F18A
:10033800002940F08E80AB4202D3824200F2FA805C
:10034800841A65EB03050120AC46002E3FD086E8F1
:100358001010BDE8F08712B90127B7FBF2F7B7FA1A
:1003680087FEBEF1000F34D1EB1B3A0C1FFA87FC55
:100378000121B3FBF2F8250C02FB183345EA0345CB
:100388000CFB08F3AB4207D9ED1908F1FF3002D294
:10039800AB4200F2D1808046ED1AA3B2B5FBF2F071
:1003A80002FB105543EA05440CFB00FCA44507D9A1
:1003B800E41900F1FF3302D2A44500F2B8801846D0
:1003C800A4EB0C0440EA08409DE731463046BDE8FE
:1003D800F087CEF1200405FA0EF307FA0EF720FA9B
:1003E80004F83A0C25FA04F448EA0308B4FBF2F1DD
:1003F8004FEA184502FB11441FFA87FC45EA0445F9
:1004080001FB0CF3AB4200FA0EF409D9ED1901F126
:10041800FF3080F08A80AB4240F2878002393D4449
:10042800EB1A1FFA88F5B3FBF2F002FB103345EA2A
:10043800034500FB0CF3AB4207D9ED1900F1FF3877
:100448006FD2AB426DD902383D44EB1A40EA014104
:100458008FE7C1F1200722FA07F88B4005FA01F46B
:1004680048EA030320FA07FE4FEA134CFD404EEA20
:10047800040EB5FBFCF94FEA1E440CFB19551FFA94
:1004880083F844EA054509FB08F4AC4202FA01F294
:1004980000FA01FA08D9ED1809F1FF3043D2AC424D
:1004A80041D9A9F102091D442D1B1FFA8EFEB5FB87
:1004B800FCF00CFB10554EEA054400FB08F8A0457B
:1004C80007D9E41800F1FF3529D2A04527D9023809
:1004D8001C4440EA0940A4EB0804A0FB02894C45EF
:1004E800C6464D4615D312D056B1BAEB0E0364EB8F
:1004F800050404FA07F7CB401F43CC40376074600B
:100508000021BDE8F0871846F8E69046E0E6C245C7
:10051800EAD2B8EB020E69EB03050138E4E7284696
:10052800D7E7404691E78146BEE7014678E70238BB
:100538003C4445E7084608E7A8F102083D442BE794
:10054800704700BF70B50F4E0F4D761BB61018BF21
:10055800002405D0013455F8043B9847A642F9D148
:100568000A4E0B4D761B01F001F9B61018BF002496
:1005780006D0013455F8043B9847A642F9D170BD1E
:1005880070BD00BFA4170008A4170008A81700082A
:10059800A417000870B4860746D0541E002A41D01C
:1005A800CAB2034602E014F1FF343BD303F8012B2F
:1005B8009D07F8D1032C2ED9CDB245EA05250F2C7D
:1005C80045EA054519D903F110022646103E0F2EBB
:1005D80042F8105C42F80C5C42F8085C42F8045C93
:1005E80002F11002F2D8A4F1100222F00F0204F076
:1005F8000F041032032C13440DD91E462246043A28
:10060800032A46F8045BFAD8221F22F003020432B8
:10061800134404F003042CB1C9B21C4403F8011BB1
:100628009C42FBD170BC704714460346C2E700BF2A
:1006380080B500AF0E4A0E4B1B6843F4007313607D
:100648000B4A0B4B1B6843F480631360084A084B42
:100658001B6843F480731360032000F027F900201F
:1006680000F008F800F0DAFF0023184680BD00BF4C
:10067800003C024080B582B000AF7860124B1A6827
:10068800124B1B7819464FF47A73B3FBF1F3B2FBA4
:10069800F3F3184600F031F90346002B01D001238B
:1006A8000EE07B680F2B0AD8002279684FF0FF30E4
:1006B80000F007F9064A7B681360002300E0012375
:1006C80018460837BD4680BD0800002004000020F9
:1006D8000000002080B400AF054B1B781A46054B7C
:1006E8001B681344034A136000BFBD4680BC7047B3
:1006F800040000202800002080B400AF024B1B68D3
:100708001846BD4680BC70472800002080B584B0DC
:1007180000AF7860FFF7F0FFB8607B68FB60FB68AC
:10072800B3F1FF3F05D0094B1B781A46FB68134409
:10073800FB6000BFFFF7E0FF0246BB68D21AFB6808
:100748009A42F7D300BF1037BD4680BD0400002091
:1007580080B485B000AF78607B6803F00703FB6066
:100768000C4BDB68BB60BA684FF6FF031340BB60F5
:10077800FB681A02BB68134343F0BF6343F40033BA
:10078800BB60044ABB68D36000BF1437BD4680BC59
:10079800704700BF00ED00E080B400AF044BDB6899
:1007A8001B0A03F007031846BD4680BC704700BF0C
:1007B80000ED00E080B483B000AF03463960FB7100
:1007C80097F90730002B0ADB0D4997F907303A688B
:1007D800D2B21201D2B20B4483F800230AE00949CD
:1007E800FB7903F00F03043B3A68D2B21201D2B28C
:1007F8000B441A7600BF0C37BD4680BC704700BF5B
:1008080000E100E000ED00E080B489B000AFF860DE
:10081800B9607A60FB6803F00703FB61FB69C3F109
:100828000703042B28BF0423BB61FB690433062B91
:1008380002D9FB69033B00E000237B610122BB690D
:1008480002FA03F35A1EBB681A407B699A400121D9
:100858007B6901FA03F3591E7B680B401343184662
:100868002437BD4680BC704780B582B000AF786041
:100878007B68013BB3F1807F01D301230FE00A4A73
:100888007B68013B53600F214FF0FF30FFF792FF69
:10089800054B00229A60044B07221A600023184671
:1008A8000837BD4680BD00BF10E000E080B582B0CB
:1008B80000AF78607868FFF74BFF00BF0837BD4688
:1008C80080BD80B586B000AF0346B9607A60FB731F
:1008D80000237B61FFF760FF78617A68B9687869FF
:1008E800FFF792FF024697F90F3011461846FFF7B7
:1008F80061FF00BF1837BD4680BD80B582B000AF2C
:1009080078607868FFF7B0FF034618460837BD4699
:1009180080BD000080B489B000AF786039600023E2
:100928007B6100233B610023BB610023FB6159E12C
:100938000122FB6902FA03F37B613B681A687B6951
:1009480013403B613A697B699A4240F048813B68B1
:100958005B68022B03D03B685B68122B23D1FB69D1
:10096800DA087B68083253F82230BB61FB6903F070
:1009780007039B000F2202FA03F3DB43BA69134013
:10098800BB613B681A69FB6903F007039B0002FA25
:1009980003F3BA691343BB61FB69DA087B68083261
:1009A800B96943F822107B681B68BB61FB695B006F
:1009B800032202FA03F3DB43BA691340BB613B68C5
:1009C8005B6803F00302FB695B0002FA03F3BA6990
:1009D8001343BB617B68BA691A603B685B68012B8B
:1009E8000BD03B685B68022B07D03B685B68112B18
:1009F80003D03B685B68122B30D17B689B68BB6176
:100A0800FB695B00032202FA03F3DB43BA69134074
:100A1800BB613B68DA68FB695B0002FA03F3BA69F9
:100A28001343BB617B68BA699A607B685B68BB618A
:100A38000122FB6902FA03F3DB43BA691340BB6185
:100A48003B685B681B0903F00102FB6902FA03F3C8
:100A5800BA691343BB617B68BA695A607B68DB6813
:100A6800BB61FB695B00032202FA03F3DB43BA694B
:100A78001340BB613B689A68FB695B0002FA03F3A9
:100A8800BA691343BB617B68BA69DA603B685B6823
:100A980003F08053002B00F0A2800023FB60564A2D
:100AA800554B5B6C43F480435364534B5B6C03F4CA
:100AB8008043FB60FB68514AFB699B08023352F88C
:100AC8002330BB61FB6903F003039B000F2202FA8A
:100AD80003F3DB43BA691340BB617B68484A93421E
:100AE80019D07B68474A934213D07B68464A9342A1
:100AF8000DD07B68454A934207D07B68444A9342AD
:100B080001D1042308E0072306E0032304E00223BD
:100B180002E0012300E00023FA6902F003029200D8
:100B28009340BA691343BB613449FB699B0802339C
:100B3800BA6941F82320374B1B68BB613B69DB432B
:100B4800BA691340BB613B685B6803F48033002BD0
:100B580003D0BA693B691343BB612E4ABB69136072
:100B68002C4B5B68BB613B69DB43BA691340BB61D3
:100B78003B685B6803F40033002B03D0BA693B6918
:100B88001343BB61234ABB695360224B9B68BB611B
:100B98003B69DB43BA691340BB613B685B6803F49C
:100BA8008013002B03D0BA693B691343BB61194A10
:100BB800BB699360174BDB68BB613B69DB43BA6970
:100BC8001340BB613B685B6803F40013002B03D040
:100BD800BA693B691343BB610E4ABB69D360FB69C1
:100BE8000133FB61FB690F2B7FF6A2AE00BF2437F0
:100BF800BD4680BC704700BF003802400038014045
:100C0800000002400004024000080240000C0240BC
:100C180000100240003C014080B483B000AF78600F
:100C28000B467B8013467B707B78002B03D07A8839
:100C38007B689A6103E07B881A047B689A6100BF2D
:100C48000C37BD4680BC704780B483B000AF786075
:100C58000B467B807B685A697B881A407B889A425E
:100C680004D17B881A047B689A6102E07A887B68E1
:100C78009A6100BF0C37BD4680BC704780B586B00E
:100C880000AF78607B68002B01D101232DE27B68DF
:100C98001B6803F00103002B75D0A34B9B6803F07E
:100CA8000C03042B0CD0A04B9B6803F00C03082BFF
:100CB80012D19D4B5B6803F48003B3F5800F0BD111
:100CC800994B1B6803F40033002B5BD07B685B688F
:100CD800002B57D1012308E27B685B68B3F5803F9E
:100CE80006D1914A904B1B6843F4803313601DE092
:100CF8007B685B68B3F5A02F0CD18B4A8A4B1B68C5
:100D080043F480231360884A874B1B6843F480337D
:100D180013600BE0844A844B1B6823F48033136010
:100D2800814A814B1B6823F4802313607B685B68CE
:100D3800002B13D0FFF7E0FC386108E0FFF7DCFC7C
:100D480002463B69D31A642B01D90323CDE1764BC4
:100D58001B6803F40033002BF0D014E0FFF7CCFC41
:100D6800386108E0FFF7C8FC02463B69D31A642BD8
:100D780001D90323B9E16C4B1B6803F40033002B42
:100D8800F0D100E000BF7B681B6803F00203002B72
:100D980063D0654B9B6803F00C03002B0BD0624BB0
:100DA8009B6803F00C03082B1CD15F4B5B6803F4B2
:100DB8008003002B16D15C4B1B6803F00203002B49
:100DC80005D07B68DB68012B01D001238DE15649F2
:100DD800554B1B6823F0F8027B681B69DB00134343
:100DE8000B603AE07B68DB68002B20D04F4B012278
:100DF8001A60FFF781FC386108E0FFF77DFC0246C6
:100E08003B69D31A022B01D903236EE1464B1B68B9
:100E180003F00203002BF0D04349434B1B6823F037
:100E2800F8027B681B69DB0013430B6015E03F4B3E
:100E380000221A60FFF760FC386108E0FFF75CFCED
:100E480002463B69D31A022B01D903234DE1364BE5
:100E58001B6803F00203002BF0D17B681B6803F0CA
:100E68000803002B30D07B685B69002B16D0304B11
:100E780001221A60FFF740FC386108E0FFF73CFCEC
:100E880002463B69D31A022B01D903232DE1264BD5
:100E98005B6F03F00203002BF0D015E0244B002217
:100EA8001A60FFF729FC386108E0FFF725FC0246C5
:100EB8003B69D31A022B01D9032316E11A4B5B6F46
:100EC80003F00203002BF0D17B681B6803F00403D6
:100ED800002B00F0A0800023FB75134B1B6C03F064
:100EE8008053002B0FD10023FB600F4A0E4B1B6C65
:100EF80043F0805313640C4B1B6C03F08053FB606E
:100F0800FB680123FB750B4B1B6803F48073002BF4
:100F180021D1084A074B1B6843F480731360FFF71D
:100F2800EBFB386111E000BF003802400000474287
:100F3800800E474200700040FFF7DEFB02463B6927
:100F4800D31A022B01D90323CFE06A4B1B6803F4A1
:100F58008073002BF0D07B689B68012B06D1664A12
:100F6800654B1B6F43F0010313671CE07B689B68AC
:100F7800052B0CD1604A604B1B6F43F004031367C9
:100F88005D4A5D4B1B6F43F0010313670BE05A4A40
:100F9800594B1B6F23F001031367574A564B1B6FBE
:100FA80023F0040313677B689B68002B15D0FFF7B9
:100FB800A3FB38610AE0FFF79FFB02463B69D31A9F
:100FC80041F28832934201D903238EE04A4B1B6FCA
:100FD80003F00203002BEED014E0FFF78DFB38611D
:100FE8000AE0FFF789FB02463B69D31A41F28832CF
:100FF800934201D9032378E03F4B1B6F03F00203B0
:10100800002BEED1FB7D012B05D13B4A3A4B1B6CE3
:1010180023F0805313647B689B69002B64D0364BA4
:101028009B6803F00C03082B5CD07B689B69022B40
:1010380041D1324B00221A60FFF75EFB386108E0AD
:10104800FFF75AFB02463B69D31A022B01D9032347
:101058004BE0294B1B6803F00073002BF0D12649A5
:101068007B68DA697B681B6A1A437B685B6A9B0149
:101078001A437B689B6A5B08013B1B041A437B6825
:10108800DB6A1B0613434B601C4B01221A60FFF7F7
:1010980033FB386108E0FFF72FFB02463B69D31AA0
:1010A800022B01D9032320E0134B1B6803F00073C4
:1010B800002BF0D018E0114B00221A60FFF71CFB40
:1010C800386108E0FFF718FB02463B69D31A022B88
:1010D80001D9032309E0084B1B6803F00073002BB8
:1010E800F0D101E0012300E0002318461837BD467F
:1010F80080BD00BF007000400038024060004742D9
:1011080080B584B000AF786039607B68002B01D16E
:101118000123CAE0674B1B6803F00F023B689A4241
:101128000CD2644B3A68D2B21A70624B1B6803F057
:101138000F023B689A4201D00123B6E07B681B6826
:1011480003F00203002B20D07B681B6803F0040324
:10115800002B05D0584A584B9B6843F4E0539360E2
:101168007B681B6803F00803002B05D0524A524BDA
:101178009B6843F4604393604F494F4B9B6823F04F
:10118800F0027B689B6813438B607B681B6803F0E5
:101198000103002B44D07B685B68012B07D1464BC9
:1011A8001B6803F40033002B19D101237DE07B6811
:1011B8005B68022B03D07B685B68032B07D13E4B2F
:1011C8001B6803F00073002B09D101236DE03A4B33
:1011D8001B6803F00203002B01D1012365E03649A7
:1011E800354B9B6823F003027B685B6813438B6075
:1011F800FFF782FAF8600AE0FFF77EFA0246FB681A
:10120800D31A41F28832934201D903234DE02A4B85
:101218009B6803F00C027B685B689B009A42EBD1E9
:10122800244B1B6803F00F023B689A420CD9214BF0
:101238003A68D2B21A701F4B1B6803F00F023B6862
:101248009A4201D0012330E07B681B6803F0040355
:10125800002B08D01849184B9B6823F4E0527B6890
:10126800DB6813438B607B681B6803F00803002B63
:1012780009D01149104B9B6823F460427B681B69B5
:10128800DB0013438B6000F01DF801460A4B9B6896
:101298001B0903F00F03094AD35C21FA03F3084A38
:1012A80013600020FFF7E6F9002318461037BD4603
:1012B80080BD00BF003C0240003802408C17000887
:1012C800080000202DE9F04F8FB000AF0023FB622B
:1012D80000237B630023BB6200233B63624B9B6854
:1012E80003F00C03042B07D0082B08D0002B40F088
:1012F800B2805E4B3B63B1E05D4B3B63AEE05A4B63
:101308005B6803F03F03FB62574B5B6803F48003A1
:10131800002B4ED0544B5B689B094FF0000440F201
:10132800FF114FF0000201EA030102EA04020B4632
:10133800144660017862786A40EAD36078625B019B
:101348003B62D7E908345B1A64EB02044FEA84195C
:1013580049EA93694FEA8318B8EB030869EB040973
:101368004FEAC903FB61FB6943EA5873FB614FEA23
:10137800C803BB61D7E9068918EB010849EB0209E4
:101388004FEA49237B617B6943EAD8537B614FEA83
:1013980048233B61D7E9048940464946FB6A4FF038
:1013A80000041A462346FEF745FF03460C467B63B6
:1013B80043E02D4B5B689B094FF0000440F2FF119E
:1013C8004FF0000201EA030102EA04020B46144648
:1013D8006001F860F86840EAD360F8605B01BB60C0
:1013E800D7E902345B1A64EB0204A60146EA936665
:1013F8009D01ED1A66EB0406F3007B607B6843EA07
:1014080055737B60EB003B60D7E900566D1846EBDF
:1014180002064FEA862B4BEA955B4FEA852A55462A
:101428005E4628463146FB6A4FF000041A462346BA
:10143800FEF700FF03460C467B630B4B5B681B0CF7
:1014480003F0030301335B00BB627A6BBB6AB2FB38
:10145800F3F33B6302E0054B3B6300BF3B6B18466D
:101468003C37BD46BDE8F08F003802400024F40048
:1014780000127A0080B500AFFFF7DAF800F00EF836
:1014880000F074F84FF470410348FFF7DDFB4FF4A8
:10149800FA70FFF73BF9F5E7000C024080B594B00D
:1014A80000AF07F12003302200211846FFF772F839
:1014B80007F10C0300221A605A609A60DA601A6118
:1014C8000023BB60274A274B1B6C43F080531364EF
:1014D800244B1B6C03F08053BB60BB6800237B600C
:1014E800214A214B1B6843F4404313601E4B1B6881
:1014F80003F440437B607B6801233B624FF48033F5
:101508007B620223BB634FF48003FB6304233B64C9
:1015180064237B640223BB640423FB6407F1200378
:101528001846FFF7ABFB0346002B01D000F070F81C
:101538000F23FB6002233B6100237B614FF4805340
:10154800BB610023FB6107F10C0303211846FFF779
:10155800D7FD0346002B01D000F05AF800BF5037E2
:10156800BD4680BD003802400070004080B588B09C
:1015780000AF07F10C0300221A605A609A60DA6023
:101588001A610023BB60204A1F4B1B6B43F080038A
:1015980013631D4B1B6B03F08003BB60BB68002308
:1015A8007B60194A184B1B6B43F008031363164BF7
:1015B8001B6B03F008037B607B6800233B60124AC7
:1015C800114B1B6B43F0010313630F4B1B6B03F0B1
:1015D80001033B603B6800224FF470410B48FFF762
:1015E8001BFB4FF47043FB6001233B6100237B61CD
:1015F8000123BB6107F10C0319460448FFF78AF978
:1016080000BF2037BD4680BD00380240000C0240B4
:1016180080B400AF00BFBD4680BC704780B483B0C3
:1016280000AF00237B600F4A0E4B5B6C43F4804392
:1016380053640C4B5B6C03F480437B607B68002332
:101648003B60084A074B1B6C43F080531364054BFF
:101658001B6C03F080533B603B6800BF0C37BD46F2
:1016680080BC70470038024080B400AF00BFBD4660
:1016780080BC704780B400AFFEE780B400AFFEE7DF
:1016880080B400AFFEE780B400AFFEE780B400AFDF
:1016980000BFBD4680BC704780B400AF00BFBD46E8
:1016A80080BC704780B400AF00BFBD4680BC7047A7
:1016B80080B500AFFFF70EF800BF80BD80B400AF63
:1016C800124A124B1B6843F0010313600F4B0022B0
:1016D8009A600E4A0D4B1B6823F0847323F4803301
:1016E80013600A4B0A4A5A60084A084B1B6823F4DD
:1016F80080231360054B0022DA60064B4FF000622E
:101708009A6000BFBD4680BC704700BF00380240E9
:101718001030002400ED00E0DFF834D0002103E0B1
:101728000C4B5B58435004310B480C4B42189A42FF
:10173800F6D30B4A02E0002342F8043B094B9A42D5
:10174800F9D3FFF7BBFFFEF7FDFEFFF793FE7047E7
:1017580000000220AC170008000000200C00002048
:101768000C0000202C000020FEE70000F8B500BFA8
:10177800F8BC08BC9E467047F8B500BFF8BC08BC6A
:041788009E467047C2
:10178C000000000000000000010203040607080925
:08179C00D0EAFF7F010000000C
:0417A4000502000832
:0417A800DD01000857
:0C17AC0010000000010000000024F40008
:0400000508001721B7
:00000001FF
